:020000040800F2
:10000000B8070020A1010008A9010008AB01000801
:10001000AD010008AF010008B101000800000000B8
:10002000000000000000000000000000B301000814
:10003000B501000800000000B7010008B901000880
:10004000BB010008BB010008BB010008BB010008A0
:10005000BB010008BB010008BB010008BB01000890
:10006000BB010008BB010008BB010008BB01000880
:10007000BB010008BB010008BB010008BB01000870
:10008000BB010008BB010008BB010008BB01000860
:10009000BB010008BB010008BB010008BB01000850
:1000A000BB010008BB010008BB010008BB01000840
:1000B000B31F0008B9200008BB010008BB010008FD
:1000C000BB010008BB010008BB010008BB01000820
:1000D000BB010008F9250008BB010008BB010008AE
:1000E000BB010008BB010008BB01000800F002F8DA
:1000F00000F047F80AA090E8000C82448344AAF17B
:100100000107DA4501D100F03CF8AFF2090EBAE878
:100110000F0013F0010F18BFFB1A43F0010318473B
:10012000FC4B00001C4C0000103A24BF78C878C17A
:10013000FAD8520724BF30C830C144BF04680C60ED
:10014000704700000023002400250026103A28BF35
:1001500078C1FBD8520728BF30C148BF0B60704739
:10016000662904F05B84002070471FB500F0AAFAEE
:1001700004000020002103F081FEE0601FBD10B5E7
:1001800010BD00F0BFFB1146FFF7EFFF02F000FFCC
:1001900000F0DDFB03B4FFF7F2FF03BC02F02CFC20
:1001A0000948804709480047FEE7FEE7FEE7FEE70B
:1001B000FEE7FEE7FEE7FEE7FEE7FEE70448054947
:1001C000054A064B70470000BD1C0008ED00000802
:1001D000B8010020B8070020B8030020B8030020B1
:1001E000704700000FB4044910B503AA029800F04C
:1001F00057FA10BC5DF814FB840000202DE9F04193
:100200000E460446002020622046E168884730B34D
:10021000252805D0D4E901219047206A401CF2E747
:10022000E168204600278847050018D0A5F1410065
:10023000192802D820354FF4006732462946204657
:100240002760FFF78DFF40B1012804D0F61D26F08E
:1002500007060836D8E7361DD6E72846DAE7206ACB
:10026000BDE8F081704770477047704710B500F0E7
:100270002DFA006810BD10B5044600F027FA04609E
:1002800010BD70472DE9FF4F0C461E464FF0FF375B
:100290008BB0D2E90001DDF860800A908A46C1F394
:1002A0000A5505B93D46002108464FF00000BAF155
:1002B000000F00F4400005DA00EB80004FF440012D
:1002C00001EA50004FEA9059B9F1010F00DDB9463B
:1002D0000A9850EA4A000ED044F61050A5F2FF35B5
:1002E00045432F14B8F1000F1ED07542291E1EDDA4
:1002F000C9F100021CE0B8F1010F4FF0000001D07D
:10030000302103E0F24305E02154401CB042FBDB06
:1003100030460022002121540B99C1F80880C1E920
:1003200000200FB0BDE8F08FBD1B6D1CDEE74A4614
:1003300000DA694206A800F06BFA06AB93E8070002
:1003400003AB83E8070050460A9900F049FB8DE8AB
:100350000700A0F500501F3800900398002D0ADD1B
:1003600042F21F014A460844002303A9039068464D
:1003700000F0B2FD09E0A0F500504A461F38002306
:1003800003A90390684600F0BCFD8DE80700000457
:10039000000C03D04FF0FF30410800E01046B8F1E8
:1003A000000F03D00022009215461EE0751E05D4F2
:1003B00000F090F9303262556D1EF9D5B346012236
:1003C000084302D000227F1C04E02078302801D1AD
:1003D00000227F1E002A099784D01DE0112D07DA24
:1003E00000F078F9303262556D1C50EA0102F5D107
:1003F000084302D00098C8B10EE00021681E05E055
:10040000235C625C63542254401E491C8142F7DB2A
:10041000AB46A81B401E0990002004F80B000B9867
:10042000099AC0F80880C0E9002B7AE711264FF03E
:10043000000857E72DE9F04F88460446D21D22F008
:10044000070191B0D1E90001CDE90A0102F048FAB3
:1004500002460B98C00F01D02D2007E020688107CD
:1004600001D52B2002E0202101EAC000032A0990D7
:1004700001D0072A05DB03464146204600F088F9F3
:100480000BE12078800601D5E06900E00620B8F194
:10049000650F814606D0B8F1660F18D0B8F1670F26
:1004A00070D131E00020B9F1110F009001DB112370
:1004B00001E009F101030AAA01A90CA8FFF7E2FE75
:1004C000DDE90C70002609F10105834647E00120B3
:1004D0004B4600904FF000470AAA01A90CA8FFF76D
:1004E000D1FEDDE90DB00C995D46002610B909F189
:1004F00001000D18B9EB050003D4C0F1FF3609F176
:100500000105A5EB09002BE0B9F1010F01DA4FF06D
:1005100001090020B9F1110F0090484601DD1123B7
:1005200000E003460AAA01A90CA8FFF7ABFEDDE92B
:100530000C704D4600268346207800070AD4AB4550
:1005400000DA5D4601A8012D04DD411911F8011CF6
:10055000302907D04F4502DA17F1040F04DA0120E1
:1005600082460FE06D1EEEE7002F02DCED1B3E44DD
:1005700003E0781CA84200DD7D1CB81B00F1010AD5
:100580004FF000472078000703D4AA4501DB4FF065
:10059000FF3A0021B7F1004F0DF143088DF84310E9
:1005A00024D002202B23002F01DA7F422D230A21A1
:1005B000021EA0F1010000DC5FB197FBF1FC97FB8C
:1005C000F1F201FB1C7C17460CF1300C08F801CD50
:1005D000EEE7A8F1010003702188090501D5452146
:1005E00000E06521A0F1010800F8011C09980FA99D
:1005F000A1EB0807FF1D00B10120411901EBEA70D2
:10060000A1693844081A401EA0612078C00602D4AF
:100610002046AFF30080099828B1D4E90121904722
:10062000206A401C20622078C00622D52046AFF305
:1006300000801EE0002E04DBB34502DD01A8805DD2
:1006400000E03020D4E901219047206A401C20625C
:10065000761CAAF101005FEA000A0AD100F032F824
:10066000C0680168405CD4E901219047206A401CC1
:100670002062281EA5F10105DCDC07E0D4E9012198
:1006800018F8010B9047206A401C2062381EA7F121
:100690000107F3DC2046AFF30080032011B041E6F0
:1006A000074B70B50D467B4400F05FF804462846C2
:1006B00000F020F910B14FF0FF3070BD204670BD42
:1006C000CB280000004870477801002000487047A0
:1006D0005801002030B5B0F10A024FEA900E71F1D6
:1006E00000034EEA817EB0EB0E0061EB91014FEA10
:1006F000101E4EEA017E10EB0E0041EB11114FEA85
:10070000102E4EEA016E10EB0E0041EB11214FEA64
:10071000104E4EEA014E10EB0E0041EB1141401815
:1007200041F100014FEAD00040EA41704FEAD101A7
:1007300010EB80054FEA810444EA907444EB010415
:100740006D1944EB0404521BA3414FF0000348BF52
:100750000A3200D530BD401C41F1000130BD00001F
:1007600001694A1C02610878704700B58FB0CDE975
:1007700001310021059105497944CDE90310114665
:100780006846FFF73BFD0FB000BD0000E5FFFFFF2F
:100790002DE9F0411F46044603260168072A01F4AB
:1007A000006004DB08B116A505E016A503E008B15A
:1007B00015A500E015A521F010002060A069C01E5D
:1007C000A0610FB1401EA0612046AFF300804FB181
:1007D000D4E9012138469047206A401C2062C01CA1
:1007E000206206E0206AFAE7D4E9012115F8010B3E
:1007F0009047761EF8D22046AFF30080BDE8F08126
:100800004E414E006E616E00494E4600696E6600B4
:100810002DE9F047814616468AB0354878440DC820
:100820008DE80D0032487844801C03AC0DC884E884
:100830000D0041F69B300844372190FBF1F290FB0C
:10084000F1F5A5F1800501FB12041B3C02D56442C1
:10085000012000E00020DFF898A080460027FA443D
:10086000AAF1BE0A0EE0E0070AD03246684607EB5E
:10087000470101230AEB810100F043FB8DE80700EB
:1008800064107F1C002CEED1194F7F44AE3F19E05D
:10089000E80715D007EB04100DF1180A90E80E00D8
:1008A0008AE80E00C068F04201D1981908903246DB
:1008B000012306A903A800F024FB03AB83E807008B
:1008C0006D10641C002DE3D14FF0010332466946E0
:1008D000B8F1000F03A802D000F0FEFA01E000F02A
:1008E00010FBC9E90001C9F808200AB0BDE8F0878B
:1008F000E4440000007B00F080007047004870472F
:10090000580100207546FFF7F9FFAE46050069461D
:10091000534620F00700854618B020B5FFF74EFC7F
:10092000BDE820404FF000064FF000074FF00008F0
:100930004FF0000B21F00701AC46ACE8C009ACE871
:10094000C009ACE8C009ACE8C0098D46704710B5D5
:100950000446AFF300802046BDE81040FFF71ABC04
:100960004FF0013C50F8042B51F8043B9A4221D13E
:10097000A2EB0C03934313EACC1317D150F8042BCA
:1009800051F8043B9A4215D1A2EB0C03934313EAAE
:10099000CC130BD150F8042B51F8043B9A4209D1E7
:1009A000A2EB0C03934313EACC13DBD04FF000000F
:1009B000704700BFD01A01BAB1FA81F101F01801F5
:1009C00022FA01F0CB40C1F12001DBB2C0B2C01A63
:1009D0002CFA01F3D11A914311EAC311E6D1704701
:1009E0005FEA400C08BF91F0000F4FEA8C234FEAFA
:1009F000C12243EA51514FEA1C5018BF00F5F040A4
:100A00004FEA300018BF41F000415FEA6C5C00F033
:100A10002980BCF1FF3F08BF40F080407047130CB5
:100A200006BF12044FF0100C4FF0000C130E04BF61
:100A300012020CF1080C130F04BF12010CF1040C8C
:100A4000930F04BF92000CF1020CD30F04BF5200AD
:100A50000CF1010C11464FF00002A0F11F00A0EBB9
:100A60000C00704711F0004F08BF704731F0004193
:100A70003FF4D5AF0B0C06BF09044FF0100C4FF03C
:100A8000000C0B0E04BF09020CF1080C0B0F04BF85
:100A900009010CF1040C8B0F04BF89000CF1020C4E
:100AA000CB0F04BF49000CF1010CCCF12003A0EBEB
:100AB0000C0022FA03F302FA0CF241EA030100F1FE
:100AC0000100704720F07F4C80EA030023F07F474D
:100AD000ACEB070303F57C5300F0004003F1FF0388
:100AE0002DE980494FEA154B09B44FEA144325EA32
:100AF0000B4E24EA03480FF2042606EB132749089D
:100B00003E785FEA320203FB0667C7F5000707FB82
:100B100006F64FEA54374FEAD64606F1020607FBBF
:100B2000066CCCF1005C4FEA1C472CEA074C07FB33
:100B300006F40CFB06F504EB15464FEA961634BF97
:100B400000204FF000404FEAD13706FB07FC4FEA88
:100B50001C4C0CFB0BF7D21B03FB0CF761EB0701E2
:100B60000CFB0EF7B0EB074072EB17420CFB08F7DB
:100B700034BFA2EB0742B2EB074261EB17414FEAE9
:100B80000C444FEA910706FB07FC4FEA1C4C0CFB98
:100B90000BF7B0EBC74072EB573203FB0CF734BFD7
:100BA000A2EBC742B2EBC74261EB57310CFB0EF729
:100BB000B0EBC70072EB57720CFB08F734BFA2EB27
:100BC000C702B2EBC70261EB5771039F4FEA816125
:100BD00041EA921104EBCC044FEAD1374FEA82622A
:100BE00006FB07FC42EA90124FEA80604FEA1C4C79
:100BF0000CFB0BF7D21B03FB0CF761EB07010CFBA3
:100C00000EF7B0EB074072EB17420CFB08F734BF4E
:100C1000A2EB0742B2EB074261EB17414FEA8C555A
:100C20004FEA910704EB9C2406FB07FC4FEA1C4C9F
:100C30000CFB0BF7B0EBC74072EB573203FB0CF722
:100C400034BFA2EBC742B2EBC74261EB57310CFB9A
:100C50000EF7B0EBC70072EB57720CFB08F734BF0E
:100C6000A2EBC702B2EBC70261EB577115EB4C2543
:100C70004FEA816141EA92114FEA82624FEAD1372D
:100C800042EA901206FB07FC44F100044FEA806040
:100C90004FEA1C4C0CFB0BF7D21B03FB0CF761EB70
:100CA00007010CFB0EF7B0EB074072EB17420CFB91
:100CB00008F734BFA2EB0742B2EB074261EB1741E2
:100CC00015EB1C154FEA813141EA92414FEA82321D
:100CD00042EA90424FEA80304FEA0C7644F1000439
:100CE00048EA03434EEA0B484FF0000EB2EB080C03
:100CF00071EB030724BF624639464EEB0E0E4FF0F0
:100D0000000B0018524149414BEB0B0BB2EB080CA6
:100D100071EB03077BF1000B24BF624639464EEBB3
:100D20000E0E4FF0000B0018524149414BEB0B0BDC
:100D3000B2EB080C71EB03077BF1000B24BF62469A
:100D400039464EEB0E0E51EA020718BF46F0010677
:100D500016EB0E7655F1000254F1000103D5BDE803
:100D60008901BDE80088BDE88901BDE80048B619E1
:100D7000524141EB0101A3F10103704780807F7E66
:100D80007D7C7B7A79787776767574737271717001
:100D90006F6E6E6D6C6C6B6A6A69686867666665B3
:100DA0006464636362616160605F5F5E5E5D5D5C41
:100DB0005C5B5B5A5A5959585857575656555555B2
:100DC0005454535352525251515050504F4F4F4E12
:100DD0004E4D4D4D4C4C4C4B4B4B4A4A4A49494960
:100DE00048484847474747464646454545444444A2
:100DF000444343434342424242414141002B9C46CB
:100E000030D477002BD01CB54FEA370703B44FF02E
:100E100010004FF01001BAF1000F06D0BCF1000F26
:100E2000DCBF40F0080040F008014FF000000FBCAC
:100E3000BDE810400BF1010BBBF1010F08BF5FEAE9
:100E4000170722BF12F1010211F101014FF0004119
:100E500043F1000300F0004043EA00007047F9D37B
:100E60005708D0E746EA064613F1400F4FEA164608
:100E70001FDD13F1200FDFBF16430A460021203388
:100E80005B42BED0C3F1200746EA064602FA07F7E6
:100E90004FEA164646EA0706C3F1200722FA03F294
:100EA00001FA07F721FA03F14FF0000342EA0702C3
:100EB000A7E746EA020646EA06464FEA164646EA2B
:100EC0000106BCBF46EA0646360C4FF000034FF061
:100ED00000024FF0000194E72DE9804C9A469346BA
:100EE00070B491E8380007C831EA400C48BF34EAD2
:100EF000430C03D5FFF7E6FDFFF780FFF0BCBDE82C
:100F0000008C2DE9804C9A46934670B491E83800E5
:100F100007C810F0804F08BF13F0804F03D100F0D6
:100F200005F8FFF76BFFF0BCBDE8008C20F07F47B1
:100F300080EA030023F07F4C07EB0C03A3F57C53FE
:100F400000F00040A3F1FE0392F0000F00F0B38028
:100F500095F0000F00F077802DE901494FEA11402C
:100F60004FEA144621EA004800FB06FC24EA064743
:100F700008FB06F607FB08F800FB07F718EB064826
:100F80004CEB164C4FEA124B18EB07484FEA15464C
:100F90004CEB174022EA0B4E0BFB06FC25EA0647FA
:100FA0000EFB06F607FB0EFE0BFB07F71EEB064ECD
:100FB0004CEB164C4FF000061EEB074E4CEB174B5C
:100FC00018EB0B0840F1000018EB0E0B58EB000873
:100FD00040F100008F1A4FF000013CBFC943661B6F
:100FE00014BFB5EB040C00213CBFC943F61B4FEA0C
:100FF00017444EEA8E0E27EA04454FEA1C4704FBCD
:1010000007622CEA074C05FB07F70CFB05F604FB0F
:101010000CFC16EB074642EB174216EB0C4642EB74
:101020001C421BEB060658EB0202414146EA9E06B3
:1010300001D5BDE80189B619524141EB0101A3F187
:101040000103BDE801894FEA14454FEA114724EA3C
:10105000054621EA074C05FB07F406FB07F70CFBE6
:1010600006F105FB0CFC11EB074144EB17444FEA7A
:10107000124711EB0C4144EB1C4422EA074C05FBE0
:1010800007F206FB07F70CFB06F605FB0CFC16EB5C
:10109000074642EB174216EB0C4642EB1C456A181A
:1010A00054F1000148BF7047B619524141EB0101AC
:1010B000A3F10103704795F0000F37D04FEA1142BA
:1010C0004FEA144721EA024624EA074C02FB07F1E3
:1010D00006FB07F70CFB06F402FB0CFC14EB0744C1
:1010E00041EB17414FEA154714EB0C4441EB1C410F
:1010F00025EA074C02FB07F506FB07F70CFB06F693
:1011000002FB0CFC16EB074645EB174516EB0C46AD
:1011100045EB1C42121951F1000148BF7047B61946
:10112000524141EB0101A3F1010370474FEA14451D
:101130004FEA114724EA054621EA074C05FB07F16F
:1011400006FB07F70CFB06F24FF0000605FB0CFC54
:1011500012EB074241EB174112EB0C4251EB1C41E1
:1011600048BF7047921841EB0101A3F1010370479A
:101170002DE9F041002428E0032C13D1154800EBA1
:10118000C400154A154BD0E90051284603F036F942
:10119000074603F09DF840F2DC51081A104921F887
:1011A000140011E00B4800EBC4000B4A0B4BD0E9D4
:1011B0000051284603F022F9074603F089F800F2AF
:1011C000DC50074921F81400641C092CD4DBBDE86D
:1011D000F081000010010020A4703D0AD7A31D403B
:1011E000360000202DE9F04F95B09E48D0E90083ED
:1011F0004246D0E902B1584602F012FFCDE90E0195
:1012000001F03AFD984AC2E90201964800224FF0E7
:101210008043D0E90281404602F0CEF8CDE90C01CE
:10122000904800224FF08043D0E90081404602F010
:10123000C3F8CDE90A01DDE90C2302F035FE0022F6
:101240008A4BCDE90E0102F0B7F804460D468548F9
:10125000D0E9046786480CC800204FF0804103F0B5
:10126000CDF8804683480CC8404603F0C7F80022FA
:101270004FF08043CDE90C017E4903C902F09CF890
:1012800000224FF08043CDE90801794903C902F0FB
:1012900093F800224FF08043CDE9040130463946EF
:1012A00002F08AF88046894600224FF080432046AB
:1012B000294602F081F842464B46CDE9000102F092
:1012C000F3FDCDE90201DDE9042303F0BDFACDE928
:1012D0000601DDE9082303F0B7FACDE90A01DDE9EB
:1012E0000C2302F09DFECDE90E0101F087FB5E4A62
:1012F000C2E9060122462B463046394602F090FEEE
:10130000804601F0B9FCCDE9120100224FF0804384
:101310003046394602F050F800224FF08043CDE9C4
:1013200002012046294602F047F88046DDE9022303
:1013300002F0BAFD00224D4BCDE9040102F03CF869
:10134000CDE908014B480CC800204FF0804103F064
:1013500055F8CDE90601DDE9082303F04FF8002236
:101360004FF08043CDE90C01424903C902F024F853
:1013700000224FF08043CDE908013D4903C902F046
:101380001BF800224FF08043CDE904013046394676
:1013900002F012F88046894600224FF08043204632
:1013A000294602F009F842464B46CDE9000102F019
:1013B0007BFDCDE90201DDE9042302F075FDCDE9F5
:1013C0000601DDE9082303F03FFACDE90A01DDE972
:1013D0000C2302F025FECDE90E0101F00FFBCDE953
:1013E0001001DDE91023DDE9120102F05DFD804608
:1013F000214A224B03F036F91B4AC2E90401114687
:101400000846D1E904834246D0E906B1584602F0C5
:101410004BFD194A194BCDE90E0103F015FA124A9A
:10142000C2E908014FF0010A15E00F4800EBCA00BD
:10143000114A134BD0E90081404602F0F1FD002231
:10144000104BCDE90E0102F0D9FF074A02EBCA02A8
:1014500003C20AF1010ABAF1040FE6DD15B0BDE8D6
:10146000F08F000060000020C80000200000E03F76
:1014700010000020180000204AD8124DFB21F93F2F
:10148000FB210940008066402DE9FC4712480078A6
:1014900000F03F0A4FEA0A4A10480088824450464A
:1014A00002F05CFF06460E4A0E4B02F0A7FF044610
:1014B00000220D4B02F0A2FF804600224FF0804335
:1014C00002F0AEFDCDE90001002003490870DDE91E
:1014D0000001BDE8FC870000780000207A000020B1
:1014E0002D431CEBE2361A3F0040754010B573489F
:1014F000007811287AD2DFE800F0DD0916253241A4
:101500004E5D6A7A8796A3B2BBC6CF006C4840880E
:101510004FF08041888540216A4800F0AFF90120F2
:1015200069490870C7E06648408840F6C911081A42
:10153000890788854021634800F09EF901206249AF
:101540000870B8E05E4880884FF08041888580212F
:101550005C4800F093F901205B490870ABE0584803
:10156000808840F6C911081A890788858021554866
:1015700000F082F90120544908709CE05048C0886E
:101580004FF08041888589154E4800F077F9012099
:101590004D4908708FE04A48C08840F6C911081AC2
:1015A000890788858915474800F066F90120464972
:1015B000087080E0424800894FF0804188854915D5
:1015C000404800F05BF901203F49087073E03C4857
:1015D000008940F6C911081A8907888549153948D4
:1015E00000F04AF901203849087064E062E03448AC
:1015F00040894FF0804188850121344800F03EF950
:1016000001203149087056E02D48408940F6C91143
:10161000081A8907888501212C4800F02DF901203E
:101620002949087047E0264880894FF08041888525
:101630000221264800F022F90120234908703AE0EF
:101640001F48808940F6C911081A89078885022138
:101650001E4800F011F901201B4908702BE01848C2
:10166000C0894FF08041888501201749087022E029
:101670001348C08940F6C911081A890788850120D6
:101680001149087017E00E48008A4FF080418885A4
:1016900001200D4908700EE00948008A40F6C91182
:1016A000081A890788850120074908700020034926
:1016B000087000E000BF00BF10BD00007C000020EB
:1016C00048000020000C01405A00002000080140A2
:1016D0002DE9F041024600250026002000230024C9
:1016E000002791F803C00CF00F0591F803C00CF02F
:1016F000100CBCF1000F03D091F802C04CEA0505B4
:1017000091F800C0BCF1000F31D0146800202BE02C
:101710004FF0010C0CFA00F3B1F800C00CEA03061C
:101720009E4220D183004FF00F0C0CFA03F7BC430C
:1017300005FA03FC4CEA040491F803C0BCF1280F3D
:1017400006D14FF0010C0CFA00FCC2F814C00AE0FC
:1017500091F803C0BCF1480F05D14FF0010C0CFA11
:1017600000FCC2F810C0401C0828D1D31460B1F8A6
:1017700000C0BCF1FF0F34DD546800202EE000F102
:10178000080C4FF0010808FA0CF3B1F800C00CEA9D
:1017900003069E4221D183004FF00F0C0CFA03F791
:1017A000BC4305FA03FC4CEA040491F803C0BCF105
:1017B000280F05D100F1080C08FA0CF8C2F81480C3
:1017C00091F803C0BCF1480F07D100F1080C4FF0AD
:1017D000010808FA0CF8C2F81080401C0828CED383
:1017E0005460BDE8F0810000F0B50A4600230024F3
:1017F0000021002500F00046B6F1004F02D11D4E39
:10180000F16901E01B4E7168C0F3034583B200F437
:101810004016B6F5401F08D121F07061154E76686C
:1018200026F07066134F7E6012E000F48016B6F565
:10183000801F06D1032606FA05F4A14341F070612A
:1018400006E0460D360103FA06F6B14341F0706139
:1018500022B1460D360103FA06F6314300F0004688
:10186000B6F1004F02D1034EF16101E0014E71600B
:10187000F0BD000000000140416170470161704708
:1018800008B50121082000F0C7F84FF48040ADF8FA
:10189000000010208DF8030003208DF80200694637
:1018A0000448FFF715FF4FF480410248FFF7E6FFB9
:1018B00008BD0000000C014010B54FF480410748FE
:1018C000FFF7DAFF462001F009FB4FF4804103489F
:1018D000FFF7D4FF462001F001FB10BD000C0140D2
:1018E00070B5002100230F22C47804B3154C24687E
:1018F00004F4E064C4F5E064210AC1F10403CA40C1
:10190000447804FA03F184781440214309010E4C11
:101910000678A155047804F01F050124AC40057831
:101920006D11AD0005F1E025C5F8004109E004782E
:1019300004F01F050124AC40044D0678761145F8EB
:10194000264070BD0CED00E000E400E080E100E026
:1019500002490143024A1160704700000000FA0585
:101960000CED00E02DE9FF4717491848CDE90210BA
:101970004FF0000A23E0164800EBCA00D0E900430C
:10198000144800EBCA002246D0E90061304602F05C
:101990005BFF8046DDE9022302F030FDCDE9000166
:1019A0000B4800EBCA00D0E900432246009802F041
:1019B0007BFA074A02EBCA0203C20AF1010ABAF132
:1019C000090FD8DBBDE8FF877B14AE47E17AA43F5F
:1019D00010010020C800002029B1064AD269024344
:1019E000044BDA6104E0034AD2698243014BDA61B5
:1019F000704700000010024029B1064A12690243F4
:101A0000044B1A6104E0034A12698243014B1A61D4
:101A1000704700000010024029B1064A9269024353
:101A2000044B9A6104E0034A92698243014B9A6134
:101A3000704700000010024029B1064AD2680243F4
:101A4000044BDA6004E0034AD2688243014BDA6057
:101A5000704700000010024030B500210022002431
:101A600000232D4D6D6805F00C0121B1042905D02E
:101A7000082923D105E0294D056022E0274D0560A6
:101A80001FE0254D6D6805F47012234D6D6805F457
:101A90008034022505EB92421CB9214D5543056067
:101AA0000BE01D4D6D6805F400351DB11C4D55430F
:101AB000056002E0194D5543056002E0174D0560D1
:101AC00000BF00BF144D6D6805F0F0010909154D08
:101AD0006B5C0568DD4045600F4D6D6805F4E061A5
:101AE000090A104D6B5C4568DD4085600A4D6D68E4
:101AF00005F46051C90A0B4D6B5C4568DD40C5605B
:101B0000054D6D6805F44041890B074D6B5CC56858
:101B1000B5FBF3F5056130BD0010024000127A00FC
:101B200000093D00890000209900002010B50448FC
:101B30000078401C02490870FFF7D8FC10BD000077
:101B40007C00002008B501210520FFF765FF012179
:101B50001248FFF749FE01211148FFF745FE032017
:101B6000ADF800008DF8020010208DF803006946E2
:101B70000C48FFF7ADFD01210920FFF74DFF4FF4A1
:101B80007070ADF8000003208DF8020010208DF871
:101B9000030069460448FFF79BFD08BD00023000C2
:101BA0000004300000080140000C014010B500F0B6
:101BB00001F810BD0CB5002001900090334800687A
:101BC00040F480303149086000BF3048006800F4BC
:101BD000003000900198401C0190009818B90198BD
:101BE000B0F5A06FF1D12948006800F4003010B1C1
:101BF0000120009001E0002000900098012843D1CE
:101C00002348006840F01000214908600846006839
:101C100020F0030008600846006840F002000860F9
:101C20001A484068194948600846406848600846B4
:101C3000406840F4806048600846406820F47C10AA
:101C400048600846406840F4E8104860084600686C
:101C500040F08070086000BF0C48006800F0007021
:101C60000028F9D00948406820F00300074948607F
:101C70000846406840F00200486000BF03484068E2
:101C800000F00C000828F9D10CBD00000010024043
:101C900000200240042808D14FF0E021096941F0FA
:101CA00004014FF0E022116107E04FF0E0210969E3
:101CB00021F004014FF0E0221161704710B5134884
:101CC000006840F00100114908600846406810496A
:101CD00008400E494860084600680E4908400B4914
:101CE00008600846006820F48020086008464068C4
:101CF00020F4FE0048604FF41F008860FFF756FF95
:101D00004FF000600449086010BD00000010024060
:101D10000000FFF8FFFFF6FE08ED00E0F0B50C460E
:101D2000154600220021068C4FF6FE773E400684C1
:101D3000028B018C4FF60C7632407E1C06EA0316AD
:101D40002E433243104EB0420ED0104EB0420BD054
:101D5000B0F1804F08D00E4EB04205D00D4EB042CB
:101D600002D00D4EB04206D14FF6FD76314044F020
:101D70000106314305E04FF6F576314044F00106A7
:101D8000314302830184F0BD002C01400034014046
:101D90000004004000080040000C0040F0B50C4674
:101DA0001546002200210026078C4FF6EF7C07EA3B
:101DB0000C070784028B018C4FF6FF7707EA0416A5
:101DC00040F6FF473A404FF6FF7707EA03373A43BA
:101DD0004FF6FF7707EA05273A43114FB8420ED076
:101DE000104FB8420BD0B0F1804F08D00E4FB84220
:101DF00005D00E4FB84202D00D4FB84206D14FF673
:101E0000DF77394046F01007394305E04FF65F773A
:101E1000394044F01007394302830184F0BD0000CB
:101E2000002C014000340140000400400008004044
:101E3000000C0040F0B50C4615460022002100269B
:101E4000078C4FF6FF6C07EA0C070784828B018C26
:101E50004FF6FF7707EA04264FF60C773A404FF625
:101E6000FF7707EA03172F433A43114FB8420ED0CA
:101E7000104FB8420BD0B0F1804F08D00E4FB8428F
:101E800005D00E4FB84202D00D4FB84206D14FF6E2
:101E9000FF57394046F48077394305E04FF2FF574A
:101EA000394044F48077394382830184F0BD0000D7
:101EB000002C0140003401400004004000080040B4
:101EC000000C0040F0B50C4615460022002100260B
:101ED000078C4EF6FF7C07EA0C070784828B018C87
:101EE0004FF6FF7707EA043640F6FF473A404FF6D1
:101EF000FF7707EA05273A434FF6FF7707EA0337EC
:101F00003A43114FB8420ED0104FB8420BD0B0F147
:101F1000804F08D00E4FB84205D00E4FB84202D0C5
:101F20000D4FB84206D14DF6FF77394046F4805741
:101F3000394305E047F6FF57394044F480573943A9
:101F400082830184F0BD0000002C01400034014078
:101F50000004004000080040000C00400EB50121C4
:101F60000846FFF739FD4FF0804000F017F940F6C2
:101F7000C910ADF804004720ADF8000000208DF82E
:101F80000800ADF80600ADF8020069464FF0804049
:101F900000F0A6FA0121880700F0EEF801221146B0
:101FA000900700F059FA00214FF0804000F0EAF865
:101FB0000EBD10B50121880700F0E7F948B10121F5
:101FC000880700F0DCF8FFF7B1FD0121880700F079
:101FD000D3F810BD08B54FF4A060FFF7B9FC1C2082
:101FE0008DF8000000208DF801008DF8020001201E
:101FF0008DF803006846FFF773FC08BD30B589B063
:1020000005460C4601210220FFF7E6FC01210920CC
:10201000FFF702FD01212548FFF7E6FB2020ADF880
:10202000200028208DF8230008A92148FFF750FB45
:1020300020211F48FFF720FCADF81850ADF81440E0
:102040000020ADF81A00ADF8160005A9194800F0F7
:1020500047FA0420ADF804000020ADF80600012086
:10206000ADF808000020ADF80A00ADF80C0001A999
:10207000104800F09BF91D208DF8100002208DF80B
:10208000110000208DF8120001208DF8130004A823
:10209000FFF726FC01220521064800F0DDF90121A9
:1020A000044800F06FF809B030BD000000081A00C5
:1020B000000C01400004004010B52C48007800F0EE
:1020C000800000284CD10121294800F05EF9D0B1F0
:1020D0002648007800F04000A8B12448007800F0BD
:1020E0003F003F280AD12148007840F080001F4976
:1020F00008704FF6FF701F49088004E01B48007805
:10210000401C1A4908700421194800F03EF938B300
:102110001648007800F0400078B11448007840F08C
:10212000800012490870124800F02CF9114908800B
:1021300000210F4800F099F912E000200B490870C7
:102140000C49088000210A4800F09CF907480078F3
:1021500040F04000054908700221054800F085F96B
:102160000521034800F00BF810BD000078000020A6
:10217000000400407A000020CA4302827047CA432C
:102180000282704721B1028842F00102028004E01D
:1021900002884FF6FE731A400280704710B504465D
:1021A0006848844208D10121C014FFF745FC002192
:1021B000E014FFF741FCC4E0B4F1804F08D10121E5
:1021C0000846FFF719FC00210120FFF715FCB8E0D5
:1021D0005D48844208D101210220FFF70DFC002157
:1021E0000220FFF709FCACE05848844208D10121E5
:1021F0000420FFF701FC00210420FFF7FDFBA0E015
:102200005348844208D101210820FFF7F5FB002143
:102210000820FFF7F1FB94E04E48844208D10121E9
:102220001020FFF7E9FB00211020FFF7E5FB88E015
:102230004948844208D101212020FFF7DDFB00211D
:102240002020FFF7D9FB7CE04448844208D10121DB
:102250004014FFF7F1FB00216014FFF7EDFB70E085
:102260003F48844209D10121C804FFF7E5FB002162
:102270004FF40020FFF7E0FB63E03A48844209D1C5
:1022800001210805FFF7D8FB00214FF48010FFF76C
:10229000D3FB56E03448844209D101214805FFF7B9
:1022A000CBFB00214FF40010FFF7C6FB49E02F489D
:1022B000844208D101214020FFF79EFB00214020ED
:1022C000FFF79AFB3DE02A48844208D10121802093
:1022D000FFF792FB00218020FFF78EFB31E02548BD
:1022E000844208D101218015FFF786FB0021A0154B
:1022F000FFF782FB25E02048844209D10121080430
:10230000FFF79AFB00214FF48030FFF795FB18E0B0
:102310001A48844209D101214804FFF78DFB0021AE
:102320004FF40030FFF788FB0BE01548844208D1DA
:1023300001218804FFF780FB00214FF48020FFF784
:102340007BFB10BD002C0140000400400008004051
:10235000000C004000100040001400400034014018
:10236000004C014000500140005401400018004062
:10237000001C00400020004000400140004401409B
:10238000004801400146088F704730B502460020E2
:1023900000230024158A05EA0103958905EA010452
:1023A00013B10CB1012000E0002030BD70B505462E
:1023B0000C46244885420ED0234885420BD0B5F107
:1023C000804F08D02148854205D02148854202D05F
:1023D0002048854200D100E000BF208850B9238901
:1023E000A28861882846FFF799FCE188284600F01A
:1023F0004BF825E0208804280AD12389A288618827
:102400002846FFF7CBFCE188284600F046F817E0A5
:10241000208808280AD12389A28861882846FFF7E6
:1024200009FDE188284600F045F809E02389A288E3
:1024300061882846FFF746FDE188284600F043F80A
:1024400070BD0000002C0140003401400004004039
:1024500000080040000C00401AB183890B438381BF
:1024600002E083898B43838170470A460021018CF7
:102470004FF6DF7319404FF6FF7303EA0213194357
:102480000184704781847047028B4FF6F3731A40C2
:102490000283028B0A4302837047028B4FF2FF33A1
:1024A0001A400283028B4FF6FF7303EA01231A439B
:1024B00002837047828B4FF6F3731A408283828BBC
:1024C0000A4382837047828B4FF2FF331A40828324
:1024D000828B4FF6FF7303EA01231A43828370470E
:1024E000002202881D4B98420ED01D4B98420BD003
:1024F000B0F1804F08D01B4B984205D01A4B984240
:1025000002D01A4B984204D14FF68F731A404B8871
:102510001A43174B984207D0164B984204D04FF6F7
:10252000FF431A40CB881A4302808B8883850B882F
:1025300003850A4B98420BD0094B984208D00E4BAA
:10254000984205D00D4B984202D00D4B984201D1D4
:102550000B7A03860123838270470000002C014020
:10256000003401400004004000080040000C00401E
:1025700000100040001400400040014000440140B1
:102580000048014010B5FFF725FDFFF7E7FC0121EA
:102590008807FFF7F7FD10BD002006E0044931F879
:1025A0001010044A22F81010401C0928F6DB70476E
:1025B000360000204800002008B501210920FFF75F
:1025C0002BFA01210A48FFF70FF90820ADF80000A7
:1025D00010208DF8030003208DF80200694605489D
:1025E000FFF776F808210348FFF746F908BD000019
:1025F00000023000000C014010B540F2255139486E
:1026000000F099F800286CD0364800F04FF93649B0
:10261000087036480078012820D108460078FF2845
:1026200011D1084601782F4800F045F900BF8021FC
:102630002C4800F073F80028F9D02D480078401C91
:102640002B4908700AE02A480078022803D00020AD
:102650002749087002E002202449087023480078C6
:1026600002283ED120480078D0B91F4801781D4883
:1026700000F021F900BF80211A4800F04FF800282F
:10268000F9D01C4800781C490870002019490880BE
:10269000174908700120154908701849087020E092
:1026A000114801780F4800F006F900BF80210D485D
:1026B00000F034F80028F9D00E480088401C0D497D
:1026C000088008460088012804D1074800780C4992
:1026D000088006E00448017806480088401E064A43
:1026E000115410BD00380140060000208800002071
:1026F0000000002002000020B80000200800002098
:102700000400002021B1828942F40052828104E059
:1027100082894DF6FF731A4082817047024600207D
:10272000B1F5007F00D100BF13880B400BB1012031
:1027300000E00020704770B5024600240023002509
:10274000002040F66A16B14200D100BFC1F3421525
:1027500001F01F03012606FA03F3012D02D1968929
:10276000334006E0022D02D1168A334001E0968AFA
:1027700033400C12012606FA04F41688344013B1D3
:102780000CB1012000E0002070BDF0B5034600242C
:1027900000260025002040F66A17B94200D100BF8C
:1027A0001846C1F3421401F01F06012707FA06F587
:1027B000012C01D10C3004E0022C01D1103000E0DA
:1027C00014301AB107682F43076002E00768AF436F
:1027D0000760F0BD2DE9F04786B005460E4600249F
:1027E000A24600BFA1460027B08900B100BF2F4616
:1027F0002C8A4CF6FF700440F08804432C82AC898C
:102800004EF6F3100440B0883189084371890843BB
:102810000443AC81AC8A4FF6FF400440B0890443C6
:10282000AC8201A8FFF718F91F48874202D1DDF8F2
:1028300010A001E0DDF80CA0A88900F4004040B130
:102840000AEBCA0000EB0A1031684900B0FBF1F84E
:1028500007E00AEBCA0000EB0A1031688900B0FB00
:10286000F1F86420B8FBF0F004012009642101FBB9
:102870001089A88900F4004040B1322000EBC90063
:10288000B0FBF1F000F00700044308E0322000EB59
:1028900009106421B0FBF1F000F00F0004432C811B
:1028A00006B0BDE8F0870000003801400146888886
:1028B000C0F308007047C1F308028280704700002F
:1028C00010B508210548FEF7D9FF142000F02CFBB5
:1028D00008210248FEF7D0FF10BD0000000C0140A7
:1028E000490050EAC12018BF04204A0D18BF40F02B
:1028F000010040F2FF72B2EB515F08BF40F00200EE
:10290000012808BF052070472DE9F0414F1E00EB5C
:10291000C7010446D1E9000115461E4637F00602FC
:102920000DD02A46334601F069FD7F1E04EBC70334
:10293000D3E9002301F0B8FA37F00602F1D1022FF3
:1029400025D0042F13D0062F18BFBDE8F0812A46EA
:10295000334601F053FDD4E90A2301F0A5FA2A46D3
:10296000334601F04BFDD4E9082301F09DFA2A46D5
:10297000334601F043FDD4E9062301F095FA2A46D7
:10298000334601F03BFDD4E9042301F08DFA2A46D9
:10299000334601F033FDD4E9022301F085FA2A46DB
:1029A000334601F02BFDD4E90023BDE8F04101F0EE
:1029B0007BBA0000002213461046014901F030BBEB
:1029C0000000F03F012202F05DB801F06DBA002274
:1029D00013461046114601F023BB40F2013200209D
:1029E0004FF0E04102F04EB8024A0020110702F019
:1029F00049B8000001FDFFFF00BF70472DE9F04D11
:102A00000546DFF8388221F000408D4F82B00C4639
:102A1000404520DBA0EB080129430BD089498842BF
:102A200001DC10D17DB102B028462146BDE8F04D51
:102A3000FFF7C8BF002CC7BF0020014682483946B7
:102A400002B0BDE8F08D0120FDF715FC02B0BDE835
:102A5000F04DFFF7BCBF7D49884244DA7C49814292
:102A6000A1BF79487B4902B0BDE8F08D2A462346D4
:102A70001046194601F0C2FC8346024676480E46CF
:102A80000B4606217844FFF73FFF5A46334601F0D4
:102A9000B5FC074671488A465A46334604217844B5
:102AA000FFF732FF5A46334601F0A8FC00224346A6
:102AB00001F0FAF902460B463846514601F0B0FAE9
:102AC0002A46234601F09AFC654A664B01F0CAFD8E
:102AD0002A46234601F0C6FD02B05B4ABDE8F04D30
:102AE0005C4B01F0BFBD002C4FF000024BDA4646B4
:102AF00043462846214601F0D7F94FF0FF3201F056
:102B0000C1FF0446024658480D460B46062178444C
:102B1000FFF7FAFE22462B4601F070FC8046534830
:102B20008A4622462B4604217844FFF7EDFE2246D2
:102B30002B4601F063FC0022334601F0B5F906464E
:102B40008B462046294601F023F904460D463246BD
:102B50005B464046514601F063FA22462B4601F09F
:102B60004DFC3F4A3F4B01F06FFE22462B4601F0E1
:102B70009BF9012201F086FF02B03B46BDE8F04D13
:102B8000314A01F06FBD2D4B2846214601F06AFD08
:102B90004FF0FF3201F076FF05460E4601F0F8F8DF
:102BA00000270C4680463A460B4601F07DF98246E6
:102BB0008B463A4623461046194601F01FFC2A462A
:102BC000334601F04FFD52465B4601F029FA82463A
:102BD00027488B462A46334606217844FFF794FE61
:102BE0002A46334601F00AFCCDE9000121482A4675
:102BF000334604217844FFF787FE2A46334601F026
:102C0000FDFB00220D4B01F04FF902460B46DDE9BA
:102C1000000101F005FA4246234601F0EFFB52465F
:102C20005B4601F041F93A46234601F03DF902B016
:102C30000122BDE8F04D01F025BF00000000F03F8B
:102C4000FB2109400000F07F182D44540000E03FB4
:102C50000000603CFB21F93F882000009E2000001E
:102C6000075C143326A6913CFE1F000014200000D0
:102C7000321F0000481F00002DE9F84F04460D46A2
:102C800021F0004000917349814211DC7249884271
:102C900001DC06D12CB120462946BDE8F84FFFF7EC
:102CA00091BE6E48002DCCBF6D496E49BDE8F88FCE
:102CB0006D49814211DD6D498142D8BF4FF0FF3629
:102CC0006DDD20462946FFF70BFE042808BFFFF7FD
:102CD0008BFE20462946BDE8F88F6549654F25F0F3
:102CE0000045814233DD6449814219DD00263246C8
:102CF0004FF080432046294601F0D6F880468A46A8
:102D000001222046294601F0BDFE00223B4601F08B
:102D10009BFD4246534601F083F904460D463EE0D2
:102D200001260022BA463B462046294601F0BCF85F
:102D300080460F46002253462046294601F084FD76
:102D400042463B4601F06CF904460D4627E04B49EC
:102D500081421BDDDFF828A10226002253462046CF
:102D6000294601F04BFB00223B4601F09DF88046CE
:102D70000F46002253462046294601F065FD424693
:102D80003B4601F04DF904460D4608E00326224675
:102D90002B4600203B4901F043F904460D462246EC
:102DA0002B461046194601F029FB8B468246024607
:102DB0000B4601F023FB07460246334888460B4684
:102DC00006217844FFF7A0FD52465B4601F016FB52
:102DD00082462E488B463A46434605217844FFF703
:102DE00093FD3A46434601F009FB02460B46002E8E
:102DF000504659460CDA01F057F822462B4601F0AE
:102E0000FDFA01B022462B46BDE8F04F01F02ABC86
:102E100001F04AF822462B4601F0F0FA1C4A7A44A7
:102E200002EBC603D3E9002301F00EFD22462B4638
:102E300001F00AFD174A7A4402EBC603D3E90023E6
:102E400001F010FC009A002AB8BF81F00041BDE8F3
:102E5000F88F0000000010440000F07F182D44544B
:102E6000FB21F93FFB21F9BF0000DC3F0000203EC1
:102E70000000F33F0000F03F0000E63F0080034009
:102E80000000F83F0000F0BF021E0000C01D00005F
:102E90005E1D0000261D000010B56FF00400FEF757
:102EA000F9FE0A4800680A49B0FBF1F009490870C8
:102EB0000846007800EB4001C1EBC0104FF6FF71EF
:102EC00001EAC0000449088010BD0000A0000020F5
:102ED00000127A0080000020820000200146114A82
:102EE00012884A434FF0E0235A6100229A611A4641
:102EF000126942F001021A6100BF4FF0E02210692E
:102F000000F001021AB100F48032002AF5D04FF02F
:102F1000E022126922F001024FF0E0231A61002240
:102F20009A617047820000200146114A12784A4394
:102F30004FF0E0235A6100229A611A46126942F06A
:102F400001021A6100BF4FF0E022106900F0010297
:102F50001AB100F48032002AF5D04FF0E022126955
:102F600022F001024FF0E0231A6100229A617047BB
:102F70008000002000BF054A128802F04002002AAB
:102F8000F9D0C2B2014B1B1D1A80704700380140B6
:102F900096B000201490824681468346FFF77CFF5E
:102FA0004FF4A060FEF7D4FC4FF4E13000F016FFC0
:102FB000FEF766FCFEF7C6FDFFF7E4FAFFF7FCFA42
:102FC00047214FF6FF70FFF719F84FF4FA70FFF73B
:102FD00085FFB6A0FDF706F966E1FEF76DFCFEF78A
:102FE000C1FCFEF7C5F8FFF7D7FA149800283AD1CC
:102FF000B1480078012836D1012408E0AF48005DCF
:10300000AF4909780844AE490870601CC4B2AB48A7
:103010000078801EA042F1DAA8480078401EA74937
:10302000085CA7490978884216D1A4480078A549C8
:103030000988884210D101201490A3A0FDF7D2F88E
:1030400000209D4908709D4890F801A000209C49EF
:1030500008709C49088006E000209749087098494C
:10306000087098490880BAF1070F7DD2DFE80AF0AE
:103070007C0439D8E5F2F00096A0FDF7B3F88F494B
:10308000897801F07F0001F052F981F00041074694
:103090000022964B00F0C4FF954A03C28749C978C5
:1030A00001F07F0001F043F9074600228F4B00F04A
:1030B000B7FF8F4AC2E902018049097901F07F0018
:1030C00001F035F907460022884B00F0A9FF884A35
:1030D000C2E90401FEF786F84FF0000A00201490C0
:1030E000E1E01BE0FFF7ECFB4FF4FA70FFF7F6FEB0
:1030F0008048007800F0800060B1FEF7C5F9054611
:103100000E46694601EBC90160C12A4633467AA0E2
:10311000FDF768F809F1010000F0FF09B9F10A0FA5
:10312000E0DB7AA0FDF75EF800252E46002429E0BA
:10313000684600EBC4000022794BD0E900713846A4
:1031400001F020F91CD2684600EBC401D1E90071FE
:103150000022664B384601F04FFA11D20BF1010004
:1031600000F0FF0B684600E09CE000EBC400D0E9F3
:1031700000733A462846314600F096FE05460E4654
:10318000601CC4B20A2CD3DB002407E000206A468E
:1031900002EBC40210605060601CC4B20A2CF5DB64
:1031A000584601F0DBF807463A460B4628463146BA
:1031B00000F036FF05460E464FF0000B2A46334618
:1031C00058A0FDF70FF800225C4B2846314601F06D
:1031D0003BFB05460E460022594B2846314601F07E
:1031E0000BFA14D80022574B2846314601F0CAF892
:1031F0000DD886F000403E49C1E9005000213C4A0C
:10320000116151619160D160FDF7ECFF02E04EA0C9
:10321000FCF7E8FF4FF00009CA460020149042E096
:1032200055A0FCF7DFFF00215648574AC2E90C10B1
:103230004FF0000A0020149035E054A0FCF7D2FFB4
:103240000021514A116351638A46002014902AE0FC
:1032500014E0FFE750A0FCF7C5FF012407E00021C0
:10326000494A02EBC40211605160601CC4B2042CD4
:10327000F5DD4FF0000A0020149014E049A0FCF79F
:10328000B1FF012407E000203F4A02EBC4021060B6
:103290005060601CC4B2062CF5DD4FF0000A00201F
:1032A000149000E000BF00BF97E6000073746172E5
:1032B00074210D0A0000000008000020B800002062
:1032C0000700002004000020636865636B210D0A7D
:1032D000000000006D6F766520746F2074686520B3
:1032E000746172676574210D0A00000000002440BB
:1032F000600000207800002064697374656E636567
:103300003A256620636D0D0A000000006361746356
:10331000682074686520676F616C210D0A000000E9
:1033200000003E406D65616E2064697374656E6374
:10333000653A256620636D0D0A0000000000144008
:103340000000184000003440546865206F626A65D0
:10335000637420697320696E20616E20756E7265DA
:1033600061736F6E61626C6520706F736974696FF1
:103370006E210D0A000000006361746368210D0A6C
:103380000000000000005940C80000206C6F6F73FF
:10339000656E210D0A00000063617463682075701A
:1033A000210D0A00676F20746F20746865206365C3
:1033B0006E746572210D0A002DE9F04D1D460C4614
:1033C00098B0174621F0004123F00043002814BFB5
:1033D0004FF0010C4FF0000C0CEB440CFE4A0CEBD0
:1033E00002064FEA620C66452BD33E0018BF012649
:1033F00006EB45061644F94A964222D3F84A53EAA8
:10340000070C02D0944205D148B918B000201146EB
:10341000BDE8F08D002808BF4FF0000C01D04FF040
:10342000010C0CEB440212F5001F0AD8002F14BF48
:103430004FF0010C4FF0000C0CEB450212F5001F91
:1034400007D918B03A462B462146BDE8F04DFFF7A4
:10345000BCBA0022DFF88CA3002CB8BF534526DA93
:10346000DFF884C36345A8BF022220DADFF870C307
:103470009C451CDCDFF874C30CEB235CBCF1140F1F
:1034800008DDCCF1340627FA06FC0CFA06F6BE423B
:103490000DD108E05FB9CCF1140623FA06FC0CFA52
:1034A00006F69E4203D10CF00102C2F1020251EA7B
:1034B000000C19D1002D17DA002C18BF022A01D0F8
:1034C000012A07D00220FCF7D6FE18B0BDE8F04D67
:1034D000FFF770BA0220FCF7CEFEFFF76BFA18B0C8
:1034E00081F00041BDE8F08DB7F1000C6CD153457F
:1034F00025D104F1804212F5801201BF002800207E
:10350000B74918B008BFBDE8F08DB548884207DC60
:10351000002DA1BF6046294618B0BDE8F08D07E038
:10352000281E05DA80F0004118B06046BDE8F08D35
:10353000AF497944D1E9000118B0BDE8F08DDFF85A
:10354000A0C2634525D1002D1FDA19B1514512D112
:10355000D8B909E0002840F0EC82A24A214618B010
:1035600062F31E01BDE8F08D0020214618B060F323
:103570001E01BDE8F08D08DA18B02346BDE8F04D15
:1035800002460020614600F04BBD18B02146BDE860
:10359000F08D514518DAB5F1804F0DD0A5F1005CE2
:1035A000BCF1FF5C10D1B4F1000C0DDB18B061462A
:1035B000BDE8F04D00F0ECBB234618B00246BDE874
:1035C000F04D194600F01ABF060024F0004C3BD124
:1035D000D9B1514533D1002C06DD002DA1BF00200B
:1035E000514618B0BDE8F08D002C01DD002D1BDB2D
:1035F000002C13DA002D11DB012A4FF0000014BF5C
:1036000078497C4918B0BDE8F08D022A18BF002C1B
:103610000AD0012A08D1002C06DA0AE0002CB8BF33
:10362000002D11DA012A04D0002018B00146BDE8AF
:10363000F08D18B000204FF00041BDE8F08DA1F1F1
:103640004050B0F17F601AD0012000EBE47050EAE6
:10365000020421D0624C521E4FF0000B104304BFF5
:103660004FF0000B644C654883427CDD644A65483A
:1036700093421FDD884217DB002D25DB37E0002C4D
:1036800000DA4AB1022A0CBF01204FF0FF3018B017
:10369000BDE8F04D00F04BBE0120FCF7ECFD18B08A
:1036A000BDE8F04DFFF793B94D4A8A4202DC002D88
:1036B0000ADC1CE0814202DA002D18DA04E0484BF3
:1036C000994220DD002D12DD0220FCF7D4FDFFF72A
:1036D00084F905460E46002253465846214600F01E
:1036E0008DFE18B066F31E012846BDE8F08D02205D
:1036F000FCF7C1FDFFF778F90A46214618B062F3DE
:103700001E01BDE8F08D00223046614601F09CF8B4
:1037100080460E466FF0010201F0B4F94FF05532C9
:10372000394B00F09FFF4246334600F067FE00220F
:10373000364B00F097FF82464246334604911046CE
:10374000194600F05BFE5246049B00F057FE8A4685
:1037500000904FF0C0422E4B4046314600F04EFEE6
:103760002C4A2B4B00E027E0CDE90601514600989A
:1037700000F044FE82460191274A284B40463146DC
:1037800000F03CFE5246019B01F05EF882460B467B
:1037900002460591DDE9060100F086FBDDE906231E
:1037A00000268846304601F04FF85246059B00F04F
:1037B00059FF024600F07EB90020B1F5801F07DAFC
:1037C00035223046614601F05DF906466FF034005F
:1037D00000EB215024E00000FFFF1F00FFFF0F005F
:1037E0000000F03F0000F07F0000404301FCFFFFBD
:1037F0004A1700000000F0FF0000F0BF0000E041A9
:103800000000F043FFFFEF3F5555D53F0000E03F7C
:103810004715F73FFE822B6544DF5DF80BAE543E43
:10382000A0F2FF300190C1F3130040F07F6141F03E
:1038300040510291FE498842D8BF002004DDFD4975
:103840008142C8BF012001DD0D9008E000200D90ED
:103850000198401C01900298A0F5801002900299F6
:10386000F54878440B910D9900EBC100D0E9002395
:103870000F9330460A920B9900F0E6FFCDE906015E
:10388000DDE90A2130460F9B00F00EFB02460B4695
:103890000020EA4900F0C4FB059102460B46009067
:1038A000DDE9060100F0AAFD1490E5488A464FF0D4
:1038B000000878440299006812904FF0005040EAE6
:1038C00061010D980F9B01EB804000F500210991EB
:1038D0000A9A129800F0B8FF32460B9B00F0C2FE25
:1038E0004246534600F08AFD064602914046514644
:1038F000099B129A00F082FDDDE9062300F0B2FE7A
:103900003246029B00F0A0FF059B009A00F076FD76
:103910000091149A049053461046194600F06EFD2B
:1039200006460246C7480B46029106217844FEF738
:10393000EBFFCDE90510029B32461046194600F018
:103940005DFDDDE9053200F059FD0591064653465F
:1039500040461946149A00F0A7FA009B049A00F01A
:103960004DFD3246059B00F09FFACDE90510424619
:1039700053461046194600F041FD0022B24B029119
:103980000A9000F091FADDE9053200F08DFA0E465A
:103990004246AD4B404600F057FF029B0A9A00F0AA
:1039A00053FFDDE9053200F05DFE424602910A90C8
:1039B00033461046514600F021FDCDE9060153463D
:1039C000149A02990A9800F019FD8A46029033462B
:1039D00042460099049800F011FD5346029A00F007
:1039E00063FA82460B4602460591DDE9060100F0C6
:1039F0005BFADDE9062300208846064600F024FF36
:103A00005246059B00F02EFE824609914FF060421F
:103A10008E4B3046414600F0F1FC049006918C4AF2
:103A20008A4B5046099900F0E9FC82460291894A86
:103A3000894B3046414600F0E1FC5246029B00F0C3
:103A400033FA864B7B440D9A03EBC203D3E9002380
:103A500000F02AFA0E900791019800F068FC059199
:103A6000DDE9061382460E9A049800F01DFA7C4A9E
:103A70007A440D9B02EBC303D3E900230093029227
:103A800000F012FA5246059B00F00EFA0026884616
:103A900052463046059B00F0D7FE009B029A00F08C
:103AA000D3FE069B049A00F0CFFE079B0E9A00F00F
:103AB000D9FD024600200B4602903846294600F008
:103AC0009DFC824601912B4638461946029A00F029
:103AD000BBFE3246434600F091FC5246019B00F08B
:103AE000E3F907468A46324643462946029800F0E3
:103AF00085FC05460E463A46534600F0D5F9594A2C
:103B00008846914221DBA8EB020353EA000210D160
:103B10002A46334600F098FECDE90401524A534B41
:103B20003846514600F0C0F9DDE9042300F064FD99
:103B300021D20220FCF79FFBFEF74FFF0A462146E9
:103B400018B062F31E01BDE8F08D494B28F0004229
:103B50009A4210D3474A08EB020353EA00027FF46B
:103B6000C6AD2A46334600F06FFE3A46534600F093
:103B700043FD7FF6BCAD0022019228F000403E4993
:103B80003E4A01EB2051824223DA481C4FF4801157
:103B900021FA00F040443A4AC0F30A517A44394BC2
:103BA000A1F2FF31CB4020EA0303C0F3130040F43D
:103BB0008010C1F11401C84012680190B8F1000FE3
:103BC000BCBF404201902846314600F03DFE05460C
:103BD0000E462A4633463846514600F065F94FF006
:103BE00000084246284B4046059100F007FCCDE90D
:103BF0000601264A264B4046059900F0FFFB00913E
:103C000002902A4633464046059900F01DFE3A468A
:103C1000534600F027FD1F4A1F4B00F0EFFB009BAF
:103C2000029A00F041F90746884602460B4635E005
:103C30008E9803007AB60B00921300000000F03F4C
:103C4000CA130000F81200000000084009C7EE3F48
:103C5000FD033ADCF5015B14E02F3EBED0110000FD
:103C60009411000000009040FE822B654715973CA0
:103C700000CC904000346F3F01FCFFFF0000E03FAC
:103C8000E0100000FFFF0F00432EE63F396CA80C48
:103C9000615C20BEEF39FAFE422EE63FDDE9060107
:103CA00000F002F9DDE9062305460E4600F0CCFDE2
:103CB0003A46434600F0D6FC0F462A46334600906B
:103CC0001046194600F09AFB824602462E48884666
:103CD0000B4605217844FEF717FE5246434600F096
:103CE0008DFB2A46334600F0BDFC80468A463B46A3
:103CF00028463146009A00F081FB3B46009A00F0CE
:103D0000D3F80691009000224FF080434046514680
:103D100000F09AFD0F460C90424653462846314625
:103D200000F06CFB3B460C9A00F07AF9069B009A77
:103D300000F08AFD2A46334600F086FD0022134B30
:103D400000F090FC054601980E4601EB0051081565
:103D5000002810DC28463146019A00F093FEFEF759
:103D6000BFFD042808BFFEF73FFE28463146019AF2
:103D700000F088FE05460B4618B02A4658462146F4
:103D8000BDE8F04D00F03ABB800F00000000F03FAE
:103D90002DE9F04106460F4600F070FC041E0D466A
:103DA00018BF0120284320F00040C0F17F6000F1DF
:103DB000E040C00F0ED0301C18BF0120384320F067
:103DC0000040C0F17F6000F1E040C00F04BF01205F
:103DD000FCF751FA20462946BDE8F08110B586B0BF
:103DE0000446012144F20400FDF716FE4FF4007072
:103DF000ADF8140003208DF8160018208DF8170078
:103E000005A91C48FDF764FC4FF48060ADF8140070
:103E100004208DF8170005A91648FDF759FC252048
:103E20008DF8000003208DF801008DF802000120BC
:103E30008DF803006846FDF753FD01940020ADF8AE
:103E40000800ADF80A00ADF80C00ADF810000C2029
:103E5000ADF80E0001A90848FEF7BCFC012240F2B3
:103E600025510548FEF791FC01210348FEF74AFC65
:103E700006B010BD000801400038014010B500290F
:103E80000AD00878002807D005487844FCF768FD78
:103E9000002801D0002010BD0248784410BD000069
:103EA000B20E0000AA0E000010B591EA030F48BF41
:103EB00083F0004300F1D084841A71EB030C05D227
:103EC000121943EB0C03001B61EB0C01DFF824E13A
:103ED0004FEA1154A4EB135C1EEA430F18BF9EEA8D
:103EE000445F73D023EA0E03DCF1200E21EA045173
:103EF00043F4801332D322FA0CFE10EB0E0023FAA7
:103F00000CFE41EB0E01CCF1200E03FA0EFE10EB7D
:103F10000E0051F10001B1F5801FCCF1200E32D21C
:103F200001EB045112FA0EF2BDE8104058BF704781
:103F3000401C38BF5FEA420218BF7047002814BF18
:103F400020F0010041F100014FEA410313F5001F89
:103F500038BF7047A1F1C04100F048BB012A43EBD4
:103F60000302ACF1200CDCF11F0E32BF4FF0000E4B
:103F700023FA0CF310EB030041EB0451B4EB115F97
:103F8000D0D0A1EB045101F5801149085FEA30005F
:103F900001EB04510ED350F1000038BF12FA0EFEAF
:103FA00008D1BDE81040C9E7401C38BF5FEA4202B3
:103FB000CAD1C3E7BDE810404FEA410313F5001F23
:103FC00038BF7047A1F1C04100F010BB9EEA445FCA
:103FD00008D011EA5E0FBDE8104004BF01F00041B7
:103FE00000207047BDE8104070B500F0B1FA00BF86
:103FF00064FBBE3E0000E0FF02494FF0000000F00D
:104000000FBD00BF0000F87F491058BFC1F140410B
:104010005B1058BFC3F140438B42EFF30080704701
:104020002DE9C04130B4DFF8A0C23CEA111418BF3A
:104030003CEA131400F0EC8081EA03051CEA111439
:1040400044EAD57418BF1CEA131500F0C780A4EB2E
:1040500005044FF0004545EAC12145EAC32341EA82
:10406000505143EA525304F17F74994204F50034ED
:104070004FEAC0204FEAC22208BF904200F09C8065
:104080004FEA13650FF24016765D4FEA134506FBC3
:1040900005F7C7F1807706FB07F74FEAD737A7FB8D
:1040A00003687642C8F58038A7FB06CE38BFA8F172
:1040B000010807FB08E64FF0000EA6FB028CE6FBAA
:1040C00003CEDCF1000CCEF1004E38BFAEF1010E94
:1040D000A6FB0C584FF000074FF00005E6FB0E87DB
:1040E000A1FB08C6A0FB07CE16EB0E0645F10005A6
:1040F000E1FB076515F1E04E7EBFA4F580345FEA71
:1041000046066D4116F1800745F100054FEA172775
:104110004FEA066647EA0567A6F1DE46B6F1805F1C
:104120004FEA15251FD9384624F0010C05EBC47160
:10413000BCF1FE6F01EB0C1102D8F0BCBDE80081B0
:1041400024425CBF01F5801E9EEAC47F02D4F0BC0D
:10415000BDE80081244238D4F0BCA1F1C041BDE8E3
:10416000004100F043BA4FEAD22242EA43524FEAFA
:10417000D323A7FB02864FEAD02040EA415007FB39
:1041800003661EEA0E0F4FEAD12105FB026658BFF7
:10419000A6EB0056B6EB00564FEA520E4EEAC37E2F
:1041A00018EB0E0E56EB530EBDD518EB02085E4110
:1041B0007F1C55F10005B6E74FF480154FF000075E
:1041C0004FF000064FF00008ADE7F0BC4FF00000E4
:1041D00001F1C04101F00041BDE8008111EA0C1F6E
:1041E0000CEA131500D00CE013EA0C1F00F0258038
:1041F0004FF00000F0BC81EA030101F00041BDE88E
:104200000081F0BCBDE8004181EA030100F0EEB995
:10421000F0BCBDE8004170B500F09AF9097EFC3EA3
:1042200000F007B881EA03014FF0000001F00041FF
:10423000704781EA030100F0D9B9F0BCBDE8004144
:104240004FF0000021497047FFFDFBF9F7F5F4F24C
:10425000F0EEEDEBE9E8E6E4E3E1E0DEDDDBDAD821
:10426000D7D5D4D3D1D0CFCDCCCBCAC8C7C6C5C47F
:10427000C2C1C0BFBEBDBCBBBAB9B8B7B6B5B4B396
:10428000B2B1B0AFAEADACABAAA9A8A8A7A6A5A481
:10429000A3A3A2A1A09F9F9E9D9C9C9B9A99999845
:1042A0009797969595949393929191908F8F8E8EE8
:1042B0008D8C8C8B8B8A8989888887878685858475
:1042C00084838382828181800000FF070000F87F61
:1042D0004FEA41034FEA5353A3F58063D3F11E0322
:1042E000C8BFD3F1210C0CDD4FF0004242EAC122DD
:1042F00042EA505232FA03FC8CEAE17CACEBE1700A
:104300007047102BC4BF0020704703F5787CBCF1C8
:10431000FF3F04D06FF0004282EA2100704770B581
:1043200000F016F94992248000207047F2E710F05F
:10433000004248BF4042B0FA80F310FA03F10AD0BD
:10434000C3F11D0303F580634FEA415002EB0352B2
:1043500002EBD12170474FF000007047B0FA80F3B4
:1043600010FA03F10AD0C3F11D0303F580634FEA8D
:1043700041504FEA035202EBD12170474FF0000049
:104380007047000051EA030C17D41CF5801F58BF7A
:10439000BCF5801F00F10680994218BF704708BF26
:1043A0009042704707D711F5801F58BF13F5801F43
:1043B00019D499427047894270471CF5801F08D56F
:1043C000BCF5801FF7D58B4218BF704708BF8242EB
:1043D00070474FF4001C1CEB410F38BF1CEB430F20
:1043E00001D28B42704770B500F0B2F892244900B8
:1043F0004FF000514FF08053FFF706BEDFF848C181
:1044000070B51CEA111E1EBF1CEA13159EEA0C0FA4
:1044100095EA0C0F00F06F8081EA030423EA4C1345
:104420004EEAD47E21EA4C1141F4801143F480130A
:10443000AE44A1FB024CA0FB0365AEF17F7E3619B2
:1044400055EB0C05A1FB034C4CF10003A0FB021C37
:1044500016EB0C06654153F10003094218BF46F004
:10446000010613F4007F0BD14FEA03314FEA053008
:10447000340341EA155140EA16506FF003020AE096
:104480004FEAC3214FEAC520F40241EA555140EA00
:1044900056506FF0020202EB2E4201EB025585EA04
:1044A000CE710AD05FEA440C18BF24F0004450F1EA
:1044B000000041F1000120EAD47040F2FE7C624528
:1044C00000D270BDA84214BF4FF080444FF040446A
:1044D000002E08BF0024BEF1806FA8BFA1F1C0412B
:1044E000BDE8704080F282804FF0000001F1C041D1
:1044F00001F0004170479EEA0C0F0CEA131518BF3B
:1045000095EA0C0F06D04FF0000081EA030E0EF082
:10451000004170BD00F01CF88900013E00F007B8B2
:1045200000F009B84FEA430C5FEA5C5C08D081EA0E
:10453000030100F05BB84FEA410C5FEA5C5CF6D126
:104540004FF00000014970470000FF070000F87FAE
:104550000EF1020E2EF0030E5EF8046B364205D407
:10456000012A43EB030515F5001F12D8012841EB82
:10457000010C1CF5001F0CD80ED14FEAD17C15F5AB
:10458000001F0CEB4C0C0CF1020C08BF4CEBD37C65
:1045900004E04FF0080C01E04FEAD37C0CEB4C0533
:1045A00026FA05F606F00706B6F1040C06D20EEB65
:1045B000860CBDE870404CF0010C6047DFE80CF061
:1045C000090B02024FF000414FF00000A1F500215D
:1045D00070BD19461046012851EB010418BFD4F5EF
:1045E000001484BF002001F0004170BD0808A0F550
:1045F00000114FEA3101704753EA010C17D41CF542
:10460000801F58BFBCF5801F00F106808B4218BF89
:10461000704708BF8242704707D713F5801F58BF05
:1046200011F5801F19D48B4270479B4270471CF5CF
:10463000801F08D5BCF5801FF7D5994218BF704779
:1046400008BF904270474FF4001C1CEB430F38BF6B
:104650001CEB410F01D2994270470FB40CBC03BC54
:10466000FFF7C1BE91EA030F10B581F000413FF59D
:1046700023AC83F0004300F0EFB800002DE9F041D7
:1046800001F5801CBCF5001FC0F2C3804FEA115C2D
:1046900021EA0C510CF1FD0C41F480115FEA5C0C35
:1046A0000CF5C07C01D3400049413DA4890241EA98
:1046B000905187028E0E0A0CA45D04FB04F602FBE7
:1046C00006F6C6F14046A4FB0662F60D46EA42260F
:1046D00006FB06F4A4FB01235242C3F1404338BF5A
:1046E0005B1EA6FB02420024E6FB0324D20B42EA37
:1046F0004446A6FB0623A1FB02E2A3FB07E4A418A1
:104700004FF0000252F10002E3FB01426442C2F1A9
:10471000404E38BFAEF1010EA6FB04234FF000025D
:10472000E6FB0E32A2FB03464FF00004B61954F12B
:104730000004E2FB0264A1FB06E6A4FB07E816EB1B
:1047400008064FF0000858F10008E4FB01687642C3
:10475000C8F1405838BFA8F10108A2FB06E4A3FB4A
:1047600008E52D194FF0000454F10004E2FB085451
:10477000A1FB05E6A7FB04E818EB06084FF00006CE
:1047800056F10006E1FB048618F1200556F10006FB
:10479000A809A8F11B08B10908F03F08B8F10A0FF1
:1047A00040EA86601CD901EB0C51BDE8F08100BFE6
:1047B000FCF5EEE8E2DDD8D3CFCBC7C3C0BDB9B6B8
:1047C000B4B1AEACA9A7A5A3A19F9D9B9A989695BD
:1047D0009392908F8D8C8B89888786858483828144
:1047E000A0FB006800FB01F208EB4208B8EB872849
:1047F00007D5341858EB0104D5D5401C51F1000100
:10480000D1E7341A78EB0104CDD4401E71F10001D8
:10481000C9E75FEA4C0C5FEA9C5C0DD105D34FF011
:10482000000001F00041BDE8F081BDE8F04170B545
:10483000FFF78EFE6DDBFFBEBDE8F0414FF00000DC
:10484000004970470000F87F10B591EA030F48BF98
:1048500083F000433FF530AB841A71EB030C07D2B1
:1048600012198CF0004C43EB0C03001B61EB0C01A4
:10487000DFF8A4E14FEA1154A4EB135C1EEA430FE6
:1048800018BF9EEA445F00F0B08023EA6E035242F4
:1048900021EA0451C3EB6E0338BF5B1EDCF1200E2E
:1048A00025D322FA0CFE10EB0E0043FA0CFE41EB6E
:1048B0000E01CCF1200E03FA0EFE10EB0E0051F1AA
:1048C0000001CCF1200E29D412FA0EF201EB0451B2
:1048D000BDE8104058BF7047401C1CBFB2F1004FEC
:1048E000704700280CBF491C20F00100704712EBF4
:1048F000020E43EB030218BF4FF0010E4EEA4202D4
:10490000ACF1200CDCF11E0E54D943FA0CFE10EB76
:104910000E0051F1FF31CCF11E0ED5D50EF1010E76
:1049200012FA0EFE404141EB010101EB445C5FEAEB
:104930005C5C10D910EBDE7001EB045138BFBEF1A6
:10494000004FBDE8104018BF704700280CBF491C3D
:1049500020F00100704730D24FEAD42C11F500113D
:1049600024F400641BD0B1FA81F20B3AA41AA41EFD
:10497000D2F12003914030FA03F31943904001EB48
:10498000CC71002C01EB0451BDE81040A8BF70476A
:1049900001F1C0414FF0000001F000417047B0FA52
:1049A00080F310FA03F100D110BDE41A173C48055A
:1049B000C90AE4E701EB045110BD491001EB0451B1
:1049C000BDE810404FEA300002E04FF000017047B0
:1049D0004A0008BF0042F8D0B2F5001F28BF704758
:1049E00001F000414FF0000070479EEA445F07D09D
:1049F00011EA5E0FBDE8104004BF0021002070479F
:104A0000BDE8104070B5FFF7A3FD00BF40DFF63EE4
:104A100083F00041104670470000E0FFFBF70ABD3D
:104A20000CF00F03092B08BF082000F059800A2B57
:104A30000BD0082B18BF704708BF1CF0400F0AD0DE
:104A40004FF000004FF0000170471CF0400F18BFFE
:104A50004FF0004070471CF0100F08D020F070435A
:104A600000F07F4242EAD3014FEA4370704700F002
:104A7000604021F07F4242EA000201F07F4040EABC
:104A8000727070474FF0FF0C4CF4E06C1CEA11534D
:104A90001CBF9CEA030C9445C2BFDA4201EB0251F1
:104AA0007047002B0DD0BCF1000F0FD0002A01F091
:104AB0000041A4BF41F0E04141F07F614FF00000B0
:104AC000704701F000414FF00000704750EA013399
:104AD0004FF09B0C18BF4CF0806C7FF48DAA704790
:104AE0001CF4801F11D01CF4E02F03D06FEACC31EE
:104AF000490070474FF04050EFF3008222F07042BF
:104B000042EA000282F3008870474FF000007047CD
:104B1000555555555555C53F7D6FEB0312D6D4BF3E
:104B20005544880E55C1C93F3B8F68B52882A4BF44
:104B300088B20175E0EF493F09F7FD0DE13D023F05
:104B40004B2D8A1C273A03C0C88A599CE52A00408D
:104B500059018D1B6C06E6BF82922EB1C5B8B33FDA
:104B60004FBB610567ACDD3F182D4454FB21E93F85
:104B70009BF681D20B73EF3F182D4454FB21F93F74
:104B8000E2652F227F2B7A3C075C143326A6813CFA
:104B9000BDCBF07A8807703C075C143326A6913CA5
:104BA000C4EB98999999C9BF711623FEC671BCBF11
:104BB0006D9A74AFF2B0B3BF9AFDDE522DDEADBF79
:104BC0002F6C6A2C44B4A2BF0D5555555555D53F91
:104BD000FF8300922449C23F6E204CC5CD45B73FAC
:104BE000513DD0A0660DB13FEB0D76244B7BA93F24
:104BF00011DA22E33AAD903F000000000000F03FE0
:104C0000000000000000F83F00000000000000006D
:104C10000000004003B8E23F000000000000000078
:104C200006D0CF43EBFD4C3E033333333333E33F06
:104C3000FFAB6FDBB66DDB3F4D268F515555D53F32
:104C400001411DA96074D13F65DBC9934A86CD3F00
:104C5000EF4E454A287ECA3F3E5555555555C53FEE
:104C600093BDBE166CC166BF2CDE25AF6A56113FE0
:104C7000F16BD2C541BDBBBED0A4BE726937663EE2
:104C8000000000000000000002400000000000A042
:104C90000000000005400000000000C80000000007
:104CA0000C4000000000409C000000001940000083
:104CB0000020BCBE0000000034400000BFC91B8EB5
:104CC00000000004B5400000504BCFD06607E2CF93
:104CD000010000006C4100003E8251AADFEEA734C3
:104CE00001000000D9420000DCB5A0E23A301F9775
:104CF000FFFFFFFFB4450000FD25A0C8E9A3C14F99
:104D0000FFFFFFFFFF3F00000000008000000000E9
:104D1000FF3F00000000008000000000584D000828
:104D200000000020B4000000280100080C4E00081C
:104D3000B400002004070000440100081C0000002B
:104D400043000000F8FFFFFF0C0000000E00000011
:104D50000F0000002E000000000000000000000016
:104D60000000000000000000CDCCCCCCCCCC244016
:104D7000CDCCCCCCCC4C234000000000DC05DC05C5
:104D8000DC05DC05DC05DC05DC05DC05DC05DC051B
:104D9000DC05DC05DC05DC05DC05DC05DC05DC050B
:104DA000DC05DC05DC05DC05DC05DC05DC05DC05FB
:104DB000DC05000000000000000000000000F0BF63
:104DC00000000000000020C000000000000024409F
:104DD00000000000000000000000000000000000D3
:104DE0000100000000010203040102030406070899
:104DF000090204060800000000A24A0400000000A6
:0C4E00000000000001020304060708097E
:04000005080000ED02
:00000001FF
